{
  "contracts/Lottery.sol": {
    "Lottery": {
      "abi": [
        {
          "inputs": [
            {
              "internalType": "address",
              "name": "vrfCoordinatorV2",
              "type": "address"
            },
            {
              "internalType": "uint64",
              "name": "subscriptionId",
              "type": "uint64"
            },
            {
              "internalType": "uint256",
              "name": "entranceFee",
              "type": "uint256"
            },
            {
              "internalType": "bytes32",
              "name": "gasLane",
              "type": "bytes32"
            },
            {
              "internalType": "uint32",
              "name": "callbackGasLimit",
              "type": "uint32"
            },
            {
              "internalType": "uint256",
              "name": "interval",
              "type": "uint256"
            }
          ],
          "stateMutability": "nonpayable",
          "type": "constructor"
        },
        {
          "inputs": [],
          "name": "Lotter__TransferFailed",
          "type": "error"
        },
        {
          "inputs": [],
          "name": "Lottery__LotteryNotOpen",
          "type": "error"
        },
        {
          "inputs": [],
          "name": "Lottery__NotEoughETHEntered",
          "type": "error"
        },
        {
          "inputs": [
            {
              "internalType": "uint256",
              "name": "currentBalance",
              "type": "uint256"
            },
            {
              "internalType": "uint256",
              "name": "numPlayers",
              "type": "uint256"
            },
            {
              "internalType": "uint256",
              "name": "raffleState",
              "type": "uint256"
            }
          ],
          "name": "Lottery__UpkeepNotNeeded",
          "type": "error"
        },
        {
          "inputs": [
            {
              "internalType": "address",
              "name": "have",
              "type": "address"
            },
            {
              "internalType": "address",
              "name": "want",
              "type": "address"
            }
          ],
          "name": "OnlyCoordinatorCanFulfill",
          "type": "error"
        },
        {
          "anonymous": false,
          "inputs": [
            {
              "indexed": true,
              "internalType": "address",
              "name": "player",
              "type": "address"
            }
          ],
          "name": "LotteryEnter",
          "type": "event"
        },
        {
          "anonymous": false,
          "inputs": [
            {
              "indexed": true,
              "internalType": "uint256",
              "name": "requestId",
              "type": "uint256"
            }
          ],
          "name": "RequestedLotteryWinnner",
          "type": "event"
        },
        {
          "anonymous": false,
          "inputs": [
            {
              "indexed": true,
              "internalType": "address",
              "name": "winner",
              "type": "address"
            }
          ],
          "name": "WinnerPicked",
          "type": "event"
        },
        {
          "inputs": [
            {
              "internalType": "bytes",
              "name": "",
              "type": "bytes"
            }
          ],
          "name": "checkUpkeep",
          "outputs": [
            {
              "internalType": "bool",
              "name": "upkeepNeeded",
              "type": "bool"
            },
            {
              "internalType": "bytes",
              "name": "",
              "type": "bytes"
            }
          ],
          "stateMutability": "view",
          "type": "function"
        },
        {
          "inputs": [],
          "name": "enterLottery",
          "outputs": [],
          "stateMutability": "payable",
          "type": "function"
        },
        {
          "inputs": [],
          "name": "getEntranceFee",
          "outputs": [
            {
              "internalType": "uint256",
              "name": "",
              "type": "uint256"
            }
          ],
          "stateMutability": "view",
          "type": "function"
        },
        {
          "inputs": [],
          "name": "getInterval",
          "outputs": [
            {
              "internalType": "uint256",
              "name": "",
              "type": "uint256"
            }
          ],
          "stateMutability": "view",
          "type": "function"
        },
        {
          "inputs": [],
          "name": "getLotteryState",
          "outputs": [
            {
              "internalType": "enum Lottery.LotteryState",
              "name": "",
              "type": "uint8"
            }
          ],
          "stateMutability": "view",
          "type": "function"
        },
        {
          "inputs": [],
          "name": "getNumWords",
          "outputs": [
            {
              "internalType": "uint16",
              "name": "",
              "type": "uint16"
            }
          ],
          "stateMutability": "pure",
          "type": "function"
        },
        {
          "inputs": [],
          "name": "getNumberOfPlayers",
          "outputs": [
            {
              "internalType": "uint256",
              "name": "",
              "type": "uint256"
            }
          ],
          "stateMutability": "view",
          "type": "function"
        },
        {
          "inputs": [
            {
              "internalType": "uint256",
              "name": "index",
              "type": "uint256"
            }
          ],
          "name": "getPlayer",
          "outputs": [
            {
              "internalType": "address",
              "name": "",
              "type": "address"
            }
          ],
          "stateMutability": "view",
          "type": "function"
        },
        {
          "inputs": [],
          "name": "getRecentWinner",
          "outputs": [
            {
              "internalType": "address",
              "name": "",
              "type": "address"
            }
          ],
          "stateMutability": "view",
          "type": "function"
        },
        {
          "inputs": [],
          "name": "getRequestConfirmations",
          "outputs": [
            {
              "internalType": "uint16",
              "name": "",
              "type": "uint16"
            }
          ],
          "stateMutability": "pure",
          "type": "function"
        },
        {
          "inputs": [],
          "name": "getTimestamp",
          "outputs": [
            {
              "internalType": "uint256",
              "name": "",
              "type": "uint256"
            }
          ],
          "stateMutability": "view",
          "type": "function"
        },
        {
          "inputs": [
            {
              "internalType": "bytes",
              "name": "",
              "type": "bytes"
            }
          ],
          "name": "performUpkeep",
          "outputs": [],
          "stateMutability": "nonpayable",
          "type": "function"
        },
        {
          "inputs": [
            {
              "internalType": "uint256",
              "name": "requestId",
              "type": "uint256"
            },
            {
              "internalType": "uint256[]",
              "name": "randomWords",
              "type": "uint256[]"
            }
          ],
          "name": "rawFulfillRandomWords",
          "outputs": [],
          "stateMutability": "nonpayable",
          "type": "function"
        }
      ],
      "devdoc": {
        "author": "Joshua DeCristi",
        "details": "This implements Chainling VRF v2 and Chainlink Keepers",
        "kind": "dev",
        "methods": {
          "checkUpkeep(bytes)": {
            "details": "This is the function that the Chainlink Keeper nodes call they look for `upkeepNeeded` to return True. the following should be true for this to return true: 1. The time interval has passed between raffle runs. 2. The lottery is open. 3. The contract has ETH. 4. Implicity, your subscription is funded with LINK."
          },
          "performUpkeep(bytes)": {
            "details": "Once `checkUpkeep` is returning `true`, this function is called and it kicks off a Chainlink VRF call to get a random winner."
          }
        },
        "title": "A sample Lottery contract",
        "version": 1
      },
      "evm": {
        "bytecode": {
          "linkReferences": {},
          "object": "6101606040523480156200001257600080fd5b5060405162001924380380620019248339818101604052810190620000389190620002a0565b858073ffffffffffffffffffffffffffffffffffffffff1660808173ffffffffffffffffffffffffffffffffffffffff1660601b81525050508573ffffffffffffffffffffffffffffffffffffffff1660c08173ffffffffffffffffffffffffffffffffffffffff1660601b815250508467ffffffffffffffff166101008167ffffffffffffffff1660c01b815250508360a081815250508260e081815250508163ffffffff166101208163ffffffff1660e01b815250508061014081815250506000600160146101000a81548160ff021916908360018111156200012257620001216200033c565b5b0217905550426002819055505050505050506200036b565b600080fd5b600073ffffffffffffffffffffffffffffffffffffffff82169050919050565b60006200016c826200013f565b9050919050565b6200017e816200015f565b81146200018a57600080fd5b50565b6000815190506200019e8162000173565b92915050565b600067ffffffffffffffff82169050919050565b620001c381620001a4565b8114620001cf57600080fd5b50565b600081519050620001e381620001b8565b92915050565b6000819050919050565b620001fe81620001e9565b81146200020a57600080fd5b50565b6000815190506200021e81620001f3565b92915050565b6000819050919050565b620002398162000224565b81146200024557600080fd5b50565b60008151905062000259816200022e565b92915050565b600063ffffffff82169050919050565b6200027a816200025f565b81146200028657600080fd5b50565b6000815190506200029a816200026f565b92915050565b60008060008060008060c08789031215620002c057620002bf6200013a565b5b6000620002d089828a016200018d565b9650506020620002e389828a01620001d2565b9550506040620002f689828a016200020d565b94505060606200030989828a0162000248565b93505060806200031c89828a0162000289565b92505060a06200032f89828a016200020d565b9150509295509295509295565b7f4e487b7100000000000000000000000000000000000000000000000000000000600052602160045260246000fd5b60805160601c60a05160c05160601c60e0516101005160c01c6101205160e01c6101405161153d620003e76000396000818161067c01526107250152600061051f015260006104fc015260006104db0152600061049f0152600081816102fa015261074b01526000818161032a015261037e015261153d6000f3fe6080604052600436106100c25760003560e01c80635f1b0fd81161007f57806391ad27b41161005957806391ad27b414610259578063c1af578514610284578063e55ae4e81461028e578063fd6673f5146102cb576100c2565b80635f1b0fd8146101c55780636b68c03c146101f05780636e04ff0d1461021b576100c2565b806309bc33a7146100c7578063188ec356146100f25780631fe543e31461011d5780634585e33b14610146578063473f1ddc1461016f57806353a2c19a1461019a575b600080fd5b3480156100d357600080fd5b506100dc6102f6565b6040516100e99190610c68565b60405180910390f35b3480156100fe57600080fd5b5061010761031e565b6040516101149190610c68565b60405180910390f35b34801561012957600080fd5b50610144600480360381019061013f9190610e1c565b610328565b005b34801561015257600080fd5b5061016d60048036038101906101689190610ed3565b6103e8565b005b34801561017b57600080fd5b506101846105e7565b6040516101919190610f61565b60405180910390f35b3480156101a657600080fd5b506101af610611565b6040516101bc9190610f99565b60405180910390f35b3480156101d157600080fd5b506101da61061a565b6040516101e79190610f99565b60405180910390f35b3480156101fc57600080fd5b50610205610623565b604051610212919061102b565b60405180910390f35b34801561022757600080fd5b50610242600480360381019061023d91906110fb565b61063a565b6040516102509291906111e7565b60405180910390f35b34801561026557600080fd5b5061026e610721565b60405161027b9190610c68565b60405180910390f35b61028c610749565b005b34801561029a57600080fd5b506102b560048036038101906102b09190611217565b6108b8565b6040516102c29190610f61565b60405180910390f35b3480156102d757600080fd5b506102e06108ff565b6040516102ed9190610c68565b60405180910390f35b60007f0000000000000000000000000000000000000000000000000000000000000000905090565b6000600254905090565b7f000000000000000000000000000000000000000000000000000000000000000073ffffffffffffffffffffffffffffffffffffffff163373ffffffffffffffffffffffffffffffffffffffff16146103da57337f00000000000000000000000000000000000000000000000000000000000000006040517f1cf993f40000000000000000000000000000000000000000000000000000000081526004016103d1929190611244565b60405180910390fd5b6103e4828261090b565b5050565b60006104026040518060200160405280600081525061063a565b509050806104715747600080549050600160149054906101000a900460ff16600181111561043357610432610fb4565b5b6040517f6e195f250000000000000000000000000000000000000000000000000000000081526004016104689392919061126d565b60405180910390fd5b60018060146101000a81548160ff0219169083600181111561049657610495610fb4565b5b021790555060007f000000000000000000000000000000000000000000000000000000000000000073ffffffffffffffffffffffffffffffffffffffff16635d3b1d307f00000000000000000000000000000000000000000000000000000000000000007f000000000000000000000000000000000000000000000000000000000000000060037f000000000000000000000000000000000000000000000000000000000000000060036040518663ffffffff1660e01b815260040161056095949392919061133a565b602060405180830381600087803b15801561057a57600080fd5b505af115801561058e573d6000803e3d6000fd5b505050506040513d601f19601f820116820180604052508101906105b291906113a2565b9050807f1bad35fdae2e39874ff5f5c6efbd7ec60c205341a68815ea9e58abd9cd1424e660405160405180910390a250505050565b6000600160009054906101000a900473ffffffffffffffffffffffffffffffffffffffff16905090565b60006003905090565b60006003905090565b6000600160149054906101000a900460ff16905090565b60006060600080600181111561065357610652610fb4565b5b600160149054906101000a900460ff16600181111561067557610674610fb4565b5b14905060007f0000000000000000000000000000000000000000000000000000000000000000600254426106a991906113fe565b119050600080600080549050119050600080471190508380156106c95750825b80156106d25750815b80156106db5750805b9550856040518060400160405280600381526020017f30783000000000000000000000000000000000000000000000000000000000008152509550955050505050915091565b60007f0000000000000000000000000000000000000000000000000000000000000000905090565b7f00000000000000000000000000000000000000000000000000000000000000003410156107a3576040517f1facc11600000000000000000000000000000000000000000000000000000000815260040160405180910390fd5b600060018111156107b7576107b6610fb4565b5b600160149054906101000a900460ff1660018111156107d9576107d8610fb4565b5b14610810576040517f823ea8bb00000000000000000000000000000000000000000000000000000000815260040160405180910390fd5b6000339080600181540180825580915050600190039060005260206000200160009091909190916101000a81548173ffffffffffffffffffffffffffffffffffffffff021916908373ffffffffffffffffffffffffffffffffffffffff1602179055503373ffffffffffffffffffffffffffffffffffffffff167f1d64fb5ba9f2548c5b98468d58f25b87b9e866afee0122e92d9fe722bf85076c60405160405180910390a2565b60008082815481106108cd576108cc611432565b5b9060005260206000200160009054906101000a900473ffffffffffffffffffffffffffffffffffffffff169050919050565b60008080549050905090565b600080805490508260008151811061092657610925611432565b5b60200260200101516109389190611490565b9050600080828154811061094f5761094e611432565b5b9060005260206000200160009054906101000a900473ffffffffffffffffffffffffffffffffffffffff16905060008173ffffffffffffffffffffffffffffffffffffffff16476040516109a2906114f2565b60006040518083038185875af1925050503d80600081146109df576040519150601f19603f3d011682016040523d82523d6000602084013e6109e4565b606091505b5050905081600160006101000a81548173ffffffffffffffffffffffffffffffffffffffff021916908373ffffffffffffffffffffffffffffffffffffffff1602179055506000600160146101000a81548160ff02191690836001811115610a4f57610a4e610fb4565b5b021790555042600281905550600067ffffffffffffffff811115610a7657610a75610cd9565b5b604051908082528060200260200182016040528015610aa45781602001602082028036833780820191505090505b5060009080519060200190610aba929190610ba8565b506000600160146101000a81548160ff02191690836001811115610ae157610ae0610fb4565b5b021790555081600160006101000a81548173ffffffffffffffffffffffffffffffffffffffff021916908373ffffffffffffffffffffffffffffffffffffffff16021790555080610b5e576040517fe711a87700000000000000000000000000000000000000000000000000000000815260040160405180910390fd5b8173ffffffffffffffffffffffffffffffffffffffff167f5b690ec4a06fe979403046eaeea5b3ce38524683c3001f662c8b5a829632f7df60405160405180910390a25050505050565b828054828255906000526020600020908101928215610c21579160200282015b82811115610c205782518260006101000a81548173ffffffffffffffffffffffffffffffffffffffff021916908373ffffffffffffffffffffffffffffffffffffffff16021790555091602001919060010190610bc8565b5b509050610c2e9190610c32565b5090565b5b80821115610c4b576000816000905550600101610c33565b5090565b6000819050919050565b610c6281610c4f565b82525050565b6000602082019050610c7d6000830184610c59565b92915050565b6000604051905090565b600080fd5b600080fd5b610ca081610c4f565b8114610cab57600080fd5b50565b600081359050610cbd81610c97565b92915050565b600080fd5b6000601f19601f8301169050919050565b7f4e487b7100000000000000000000000000000000000000000000000000000000600052604160045260246000fd5b610d1182610cc8565b810181811067ffffffffffffffff82111715610d3057610d2f610cd9565b5b80604052505050565b6000610d43610c83565b9050610d4f8282610d08565b919050565b600067ffffffffffffffff821115610d6f57610d6e610cd9565b5b602082029050602081019050919050565b600080fd5b6000610d98610d9384610d54565b610d39565b90508083825260208201905060208402830185811115610dbb57610dba610d80565b5b835b81811015610de45780610dd08882610cae565b845260208401935050602081019050610dbd565b5050509392505050565b600082601f830112610e0357610e02610cc3565b5b8135610e13848260208601610d85565b91505092915050565b60008060408385031215610e3357610e32610c8d565b5b6000610e4185828601610cae565b925050602083013567ffffffffffffffff811115610e6257610e61610c92565b5b610e6e85828601610dee565b9150509250929050565b600080fd5b60008083601f840112610e9357610e92610cc3565b5b8235905067ffffffffffffffff811115610eb057610eaf610e78565b5b602083019150836001820283011115610ecc57610ecb610d80565b5b9250929050565b60008060208385031215610eea57610ee9610c8d565b5b600083013567ffffffffffffffff811115610f0857610f07610c92565b5b610f1485828601610e7d565b92509250509250929050565b600073ffffffffffffffffffffffffffffffffffffffff82169050919050565b6000610f4b82610f20565b9050919050565b610f5b81610f40565b82525050565b6000602082019050610f766000830184610f52565b92915050565b600061ffff82169050919050565b610f9381610f7c565b82525050565b6000602082019050610fae6000830184610f8a565b92915050565b7f4e487b7100000000000000000000000000000000000000000000000000000000600052602160045260246000fd5b60028110610ff457610ff3610fb4565b5b50565b600081905061100582610fe3565b919050565b600061101582610ff7565b9050919050565b6110258161100a565b82525050565b6000602082019050611040600083018461101c565b92915050565b600080fd5b600067ffffffffffffffff82111561106657611065610cd9565b5b61106f82610cc8565b9050602081019050919050565b82818337600083830152505050565b600061109e6110998461104b565b610d39565b9050828152602081018484840111156110ba576110b9611046565b5b6110c584828561107c565b509392505050565b600082601f8301126110e2576110e1610cc3565b5b81356110f284826020860161108b565b91505092915050565b60006020828403121561111157611110610c8d565b5b600082013567ffffffffffffffff81111561112f5761112e610c92565b5b61113b848285016110cd565b91505092915050565b60008115159050919050565b61115981611144565b82525050565b600081519050919050565b600082825260208201905092915050565b60005b8381101561119957808201518184015260208101905061117e565b838111156111a8576000848401525b50505050565b60006111b98261115f565b6111c3818561116a565b93506111d381856020860161117b565b6111dc81610cc8565b840191505092915050565b60006040820190506111fc6000830185611150565b818103602083015261120e81846111ae565b90509392505050565b60006020828403121561122d5761122c610c8d565b5b600061123b84828501610cae565b91505092915050565b60006040820190506112596000830185610f52565b6112666020830184610f52565b9392505050565b60006060820190506112826000830186610c59565b61128f6020830185610c59565b61129c6040830184610c59565b949350505050565b6000819050919050565b6112b7816112a4565b82525050565b600067ffffffffffffffff82169050919050565b6112da816112bd565b82525050565b600063ffffffff82169050919050565b6112f9816112e0565b82525050565b6000819050919050565b600061132461131f61131a84610f7c565b6112ff565b6112e0565b9050919050565b61133481611309565b82525050565b600060a08201905061134f60008301886112ae565b61135c60208301876112d1565b6113696040830186610f8a565b61137660608301856112f0565b611383608083018461132b565b9695505050505050565b60008151905061139c81610c97565b92915050565b6000602082840312156113b8576113b7610c8d565b5b60006113c68482850161138d565b91505092915050565b7f4e487b7100000000000000000000000000000000000000000000000000000000600052601160045260246000fd5b600061140982610c4f565b915061141483610c4f565b925082821015611427576114266113cf565b5b828203905092915050565b7f4e487b7100000000000000000000000000000000000000000000000000000000600052603260045260246000fd5b7f4e487b7100000000000000000000000000000000000000000000000000000000600052601260045260246000fd5b600061149b82610c4f565b91506114a683610c4f565b9250826114b6576114b5611461565b5b828206905092915050565b600081905092915050565b50565b60006114dc6000836114c1565b91506114e7826114cc565b600082019050919050565b60006114fd826114cf565b915081905091905056fea2646970667358221220e1819adf69e648b2fdb22bfec9da1e0b17bc5619806732bc42e01d4001af569164736f6c63430008080033",
          "opcodes": "PUSH2 0x160 PUSH1 0x40 MSTORE CALLVALUE DUP1 ISZERO PUSH3 0x12 JUMPI PUSH1 0x0 DUP1 REVERT JUMPDEST POP PUSH1 0x40 MLOAD PUSH3 0x1924 CODESIZE SUB DUP1 PUSH3 0x1924 DUP4 CODECOPY DUP2 DUP2 ADD PUSH1 0x40 MSTORE DUP2 ADD SWAP1 PUSH3 0x38 SWAP2 SWAP1 PUSH3 0x2A0 JUMP JUMPDEST DUP6 DUP1 PUSH20 0xFFFFFFFFFFFFFFFFFFFFFFFFFFFFFFFFFFFFFFFF AND PUSH1 0x80 DUP2 PUSH20 0xFFFFFFFFFFFFFFFFFFFFFFFFFFFFFFFFFFFFFFFF AND PUSH1 0x60 SHL DUP2 MSTORE POP POP POP DUP6 PUSH20 0xFFFFFFFFFFFFFFFFFFFFFFFFFFFFFFFFFFFFFFFF AND PUSH1 0xC0 DUP2 PUSH20 0xFFFFFFFFFFFFFFFFFFFFFFFFFFFFFFFFFFFFFFFF AND PUSH1 0x60 SHL DUP2 MSTORE POP POP DUP5 PUSH8 0xFFFFFFFFFFFFFFFF AND PUSH2 0x100 DUP2 PUSH8 0xFFFFFFFFFFFFFFFF AND PUSH1 0xC0 SHL DUP2 MSTORE POP POP DUP4 PUSH1 0xA0 DUP2 DUP2 MSTORE POP POP DUP3 PUSH1 0xE0 DUP2 DUP2 MSTORE POP POP DUP2 PUSH4 0xFFFFFFFF AND PUSH2 0x120 DUP2 PUSH4 0xFFFFFFFF AND PUSH1 0xE0 SHL DUP2 MSTORE POP POP DUP1 PUSH2 0x140 DUP2 DUP2 MSTORE POP POP PUSH1 0x0 PUSH1 0x1 PUSH1 0x14 PUSH2 0x100 EXP DUP2 SLOAD DUP2 PUSH1 0xFF MUL NOT AND SWAP1 DUP4 PUSH1 0x1 DUP2 GT ISZERO PUSH3 0x122 JUMPI PUSH3 0x121 PUSH3 0x33C JUMP JUMPDEST JUMPDEST MUL OR SWAP1 SSTORE POP TIMESTAMP PUSH1 0x2 DUP2 SWAP1 SSTORE POP POP POP POP POP POP POP PUSH3 0x36B JUMP JUMPDEST PUSH1 0x0 DUP1 REVERT JUMPDEST PUSH1 0x0 PUSH20 0xFFFFFFFFFFFFFFFFFFFFFFFFFFFFFFFFFFFFFFFF DUP3 AND SWAP1 POP SWAP2 SWAP1 POP JUMP JUMPDEST PUSH1 0x0 PUSH3 0x16C DUP3 PUSH3 0x13F JUMP JUMPDEST SWAP1 POP SWAP2 SWAP1 POP JUMP JUMPDEST PUSH3 0x17E DUP2 PUSH3 0x15F JUMP JUMPDEST DUP2 EQ PUSH3 0x18A JUMPI PUSH1 0x0 DUP1 REVERT JUMPDEST POP JUMP JUMPDEST PUSH1 0x0 DUP2 MLOAD SWAP1 POP PUSH3 0x19E DUP2 PUSH3 0x173 JUMP JUMPDEST SWAP3 SWAP2 POP POP JUMP JUMPDEST PUSH1 0x0 PUSH8 0xFFFFFFFFFFFFFFFF DUP3 AND SWAP1 POP SWAP2 SWAP1 POP JUMP JUMPDEST PUSH3 0x1C3 DUP2 PUSH3 0x1A4 JUMP JUMPDEST DUP2 EQ PUSH3 0x1CF JUMPI PUSH1 0x0 DUP1 REVERT JUMPDEST POP JUMP JUMPDEST PUSH1 0x0 DUP2 MLOAD SWAP1 POP PUSH3 0x1E3 DUP2 PUSH3 0x1B8 JUMP JUMPDEST SWAP3 SWAP2 POP POP JUMP JUMPDEST PUSH1 0x0 DUP2 SWAP1 POP SWAP2 SWAP1 POP JUMP JUMPDEST PUSH3 0x1FE DUP2 PUSH3 0x1E9 JUMP JUMPDEST DUP2 EQ PUSH3 0x20A JUMPI PUSH1 0x0 DUP1 REVERT JUMPDEST POP JUMP JUMPDEST PUSH1 0x0 DUP2 MLOAD SWAP1 POP PUSH3 0x21E DUP2 PUSH3 0x1F3 JUMP JUMPDEST SWAP3 SWAP2 POP POP JUMP JUMPDEST PUSH1 0x0 DUP2 SWAP1 POP SWAP2 SWAP1 POP JUMP JUMPDEST PUSH3 0x239 DUP2 PUSH3 0x224 JUMP JUMPDEST DUP2 EQ PUSH3 0x245 JUMPI PUSH1 0x0 DUP1 REVERT JUMPDEST POP JUMP JUMPDEST PUSH1 0x0 DUP2 MLOAD SWAP1 POP PUSH3 0x259 DUP2 PUSH3 0x22E JUMP JUMPDEST SWAP3 SWAP2 POP POP JUMP JUMPDEST PUSH1 0x0 PUSH4 0xFFFFFFFF DUP3 AND SWAP1 POP SWAP2 SWAP1 POP JUMP JUMPDEST PUSH3 0x27A DUP2 PUSH3 0x25F JUMP JUMPDEST DUP2 EQ PUSH3 0x286 JUMPI PUSH1 0x0 DUP1 REVERT JUMPDEST POP JUMP JUMPDEST PUSH1 0x0 DUP2 MLOAD SWAP1 POP PUSH3 0x29A DUP2 PUSH3 0x26F JUMP JUMPDEST SWAP3 SWAP2 POP POP JUMP JUMPDEST PUSH1 0x0 DUP1 PUSH1 0x0 DUP1 PUSH1 0x0 DUP1 PUSH1 0xC0 DUP8 DUP10 SUB SLT ISZERO PUSH3 0x2C0 JUMPI PUSH3 0x2BF PUSH3 0x13A JUMP JUMPDEST JUMPDEST PUSH1 0x0 PUSH3 0x2D0 DUP10 DUP3 DUP11 ADD PUSH3 0x18D JUMP JUMPDEST SWAP7 POP POP PUSH1 0x20 PUSH3 0x2E3 DUP10 DUP3 DUP11 ADD PUSH3 0x1D2 JUMP JUMPDEST SWAP6 POP POP PUSH1 0x40 PUSH3 0x2F6 DUP10 DUP3 DUP11 ADD PUSH3 0x20D JUMP JUMPDEST SWAP5 POP POP PUSH1 0x60 PUSH3 0x309 DUP10 DUP3 DUP11 ADD PUSH3 0x248 JUMP JUMPDEST SWAP4 POP POP PUSH1 0x80 PUSH3 0x31C DUP10 DUP3 DUP11 ADD PUSH3 0x289 JUMP JUMPDEST SWAP3 POP POP PUSH1 0xA0 PUSH3 0x32F DUP10 DUP3 DUP11 ADD PUSH3 0x20D JUMP JUMPDEST SWAP2 POP POP SWAP3 SWAP6 POP SWAP3 SWAP6 POP SWAP3 SWAP6 JUMP JUMPDEST PUSH32 0x4E487B7100000000000000000000000000000000000000000000000000000000 PUSH1 0x0 MSTORE PUSH1 0x21 PUSH1 0x4 MSTORE PUSH1 0x24 PUSH1 0x0 REVERT JUMPDEST PUSH1 0x80 MLOAD PUSH1 0x60 SHR PUSH1 0xA0 MLOAD PUSH1 0xC0 MLOAD PUSH1 0x60 SHR PUSH1 0xE0 MLOAD PUSH2 0x100 MLOAD PUSH1 0xC0 SHR PUSH2 0x120 MLOAD PUSH1 0xE0 SHR PUSH2 0x140 MLOAD PUSH2 0x153D PUSH3 0x3E7 PUSH1 0x0 CODECOPY PUSH1 0x0 DUP2 DUP2 PUSH2 0x67C ADD MSTORE PUSH2 0x725 ADD MSTORE PUSH1 0x0 PUSH2 0x51F ADD MSTORE PUSH1 0x0 PUSH2 0x4FC ADD MSTORE PUSH1 0x0 PUSH2 0x4DB ADD MSTORE PUSH1 0x0 PUSH2 0x49F ADD MSTORE PUSH1 0x0 DUP2 DUP2 PUSH2 0x2FA ADD MSTORE PUSH2 0x74B ADD MSTORE PUSH1 0x0 DUP2 DUP2 PUSH2 0x32A ADD MSTORE PUSH2 0x37E ADD MSTORE PUSH2 0x153D PUSH1 0x0 RETURN INVALID PUSH1 0x80 PUSH1 0x40 MSTORE PUSH1 0x4 CALLDATASIZE LT PUSH2 0xC2 JUMPI PUSH1 0x0 CALLDATALOAD PUSH1 0xE0 SHR DUP1 PUSH4 0x5F1B0FD8 GT PUSH2 0x7F JUMPI DUP1 PUSH4 0x91AD27B4 GT PUSH2 0x59 JUMPI DUP1 PUSH4 0x91AD27B4 EQ PUSH2 0x259 JUMPI DUP1 PUSH4 0xC1AF5785 EQ PUSH2 0x284 JUMPI DUP1 PUSH4 0xE55AE4E8 EQ PUSH2 0x28E JUMPI DUP1 PUSH4 0xFD6673F5 EQ PUSH2 0x2CB JUMPI PUSH2 0xC2 JUMP JUMPDEST DUP1 PUSH4 0x5F1B0FD8 EQ PUSH2 0x1C5 JUMPI DUP1 PUSH4 0x6B68C03C EQ PUSH2 0x1F0 JUMPI DUP1 PUSH4 0x6E04FF0D EQ PUSH2 0x21B JUMPI PUSH2 0xC2 JUMP JUMPDEST DUP1 PUSH4 0x9BC33A7 EQ PUSH2 0xC7 JUMPI DUP1 PUSH4 0x188EC356 EQ PUSH2 0xF2 JUMPI DUP1 PUSH4 0x1FE543E3 EQ PUSH2 0x11D JUMPI DUP1 PUSH4 0x4585E33B EQ PUSH2 0x146 JUMPI DUP1 PUSH4 0x473F1DDC EQ PUSH2 0x16F JUMPI DUP1 PUSH4 0x53A2C19A EQ PUSH2 0x19A JUMPI JUMPDEST PUSH1 0x0 DUP1 REVERT JUMPDEST CALLVALUE DUP1 ISZERO PUSH2 0xD3 JUMPI PUSH1 0x0 DUP1 REVERT JUMPDEST POP PUSH2 0xDC PUSH2 0x2F6 JUMP JUMPDEST PUSH1 0x40 MLOAD PUSH2 0xE9 SWAP2 SWAP1 PUSH2 0xC68 JUMP JUMPDEST PUSH1 0x40 MLOAD DUP1 SWAP2 SUB SWAP1 RETURN JUMPDEST CALLVALUE DUP1 ISZERO PUSH2 0xFE JUMPI PUSH1 0x0 DUP1 REVERT JUMPDEST POP PUSH2 0x107 PUSH2 0x31E JUMP JUMPDEST PUSH1 0x40 MLOAD PUSH2 0x114 SWAP2 SWAP1 PUSH2 0xC68 JUMP JUMPDEST PUSH1 0x40 MLOAD DUP1 SWAP2 SUB SWAP1 RETURN JUMPDEST CALLVALUE DUP1 ISZERO PUSH2 0x129 JUMPI PUSH1 0x0 DUP1 REVERT JUMPDEST POP PUSH2 0x144 PUSH1 0x4 DUP1 CALLDATASIZE SUB DUP2 ADD SWAP1 PUSH2 0x13F SWAP2 SWAP1 PUSH2 0xE1C JUMP JUMPDEST PUSH2 0x328 JUMP JUMPDEST STOP JUMPDEST CALLVALUE DUP1 ISZERO PUSH2 0x152 JUMPI PUSH1 0x0 DUP1 REVERT JUMPDEST POP PUSH2 0x16D PUSH1 0x4 DUP1 CALLDATASIZE SUB DUP2 ADD SWAP1 PUSH2 0x168 SWAP2 SWAP1 PUSH2 0xED3 JUMP JUMPDEST PUSH2 0x3E8 JUMP JUMPDEST STOP JUMPDEST CALLVALUE DUP1 ISZERO PUSH2 0x17B JUMPI PUSH1 0x0 DUP1 REVERT JUMPDEST POP PUSH2 0x184 PUSH2 0x5E7 JUMP JUMPDEST PUSH1 0x40 MLOAD PUSH2 0x191 SWAP2 SWAP1 PUSH2 0xF61 JUMP JUMPDEST PUSH1 0x40 MLOAD DUP1 SWAP2 SUB SWAP1 RETURN JUMPDEST CALLVALUE DUP1 ISZERO PUSH2 0x1A6 JUMPI PUSH1 0x0 DUP1 REVERT JUMPDEST POP PUSH2 0x1AF PUSH2 0x611 JUMP JUMPDEST PUSH1 0x40 MLOAD PUSH2 0x1BC SWAP2 SWAP1 PUSH2 0xF99 JUMP JUMPDEST PUSH1 0x40 MLOAD DUP1 SWAP2 SUB SWAP1 RETURN JUMPDEST CALLVALUE DUP1 ISZERO PUSH2 0x1D1 JUMPI PUSH1 0x0 DUP1 REVERT JUMPDEST POP PUSH2 0x1DA PUSH2 0x61A JUMP JUMPDEST PUSH1 0x40 MLOAD PUSH2 0x1E7 SWAP2 SWAP1 PUSH2 0xF99 JUMP JUMPDEST PUSH1 0x40 MLOAD DUP1 SWAP2 SUB SWAP1 RETURN JUMPDEST CALLVALUE DUP1 ISZERO PUSH2 0x1FC JUMPI PUSH1 0x0 DUP1 REVERT JUMPDEST POP PUSH2 0x205 PUSH2 0x623 JUMP JUMPDEST PUSH1 0x40 MLOAD PUSH2 0x212 SWAP2 SWAP1 PUSH2 0x102B JUMP JUMPDEST PUSH1 0x40 MLOAD DUP1 SWAP2 SUB SWAP1 RETURN JUMPDEST CALLVALUE DUP1 ISZERO PUSH2 0x227 JUMPI PUSH1 0x0 DUP1 REVERT JUMPDEST POP PUSH2 0x242 PUSH1 0x4 DUP1 CALLDATASIZE SUB DUP2 ADD SWAP1 PUSH2 0x23D SWAP2 SWAP1 PUSH2 0x10FB JUMP JUMPDEST PUSH2 0x63A JUMP JUMPDEST PUSH1 0x40 MLOAD PUSH2 0x250 SWAP3 SWAP2 SWAP1 PUSH2 0x11E7 JUMP JUMPDEST PUSH1 0x40 MLOAD DUP1 SWAP2 SUB SWAP1 RETURN JUMPDEST CALLVALUE DUP1 ISZERO PUSH2 0x265 JUMPI PUSH1 0x0 DUP1 REVERT JUMPDEST POP PUSH2 0x26E PUSH2 0x721 JUMP JUMPDEST PUSH1 0x40 MLOAD PUSH2 0x27B SWAP2 SWAP1 PUSH2 0xC68 JUMP JUMPDEST PUSH1 0x40 MLOAD DUP1 SWAP2 SUB SWAP1 RETURN JUMPDEST PUSH2 0x28C PUSH2 0x749 JUMP JUMPDEST STOP JUMPDEST CALLVALUE DUP1 ISZERO PUSH2 0x29A JUMPI PUSH1 0x0 DUP1 REVERT JUMPDEST POP PUSH2 0x2B5 PUSH1 0x4 DUP1 CALLDATASIZE SUB DUP2 ADD SWAP1 PUSH2 0x2B0 SWAP2 SWAP1 PUSH2 0x1217 JUMP JUMPDEST PUSH2 0x8B8 JUMP JUMPDEST PUSH1 0x40 MLOAD PUSH2 0x2C2 SWAP2 SWAP1 PUSH2 0xF61 JUMP JUMPDEST PUSH1 0x40 MLOAD DUP1 SWAP2 SUB SWAP1 RETURN JUMPDEST CALLVALUE DUP1 ISZERO PUSH2 0x2D7 JUMPI PUSH1 0x0 DUP1 REVERT JUMPDEST POP PUSH2 0x2E0 PUSH2 0x8FF JUMP JUMPDEST PUSH1 0x40 MLOAD PUSH2 0x2ED SWAP2 SWAP1 PUSH2 0xC68 JUMP JUMPDEST PUSH1 0x40 MLOAD DUP1 SWAP2 SUB SWAP1 RETURN JUMPDEST PUSH1 0x0 PUSH32 0x0 SWAP1 POP SWAP1 JUMP JUMPDEST PUSH1 0x0 PUSH1 0x2 SLOAD SWAP1 POP SWAP1 JUMP JUMPDEST PUSH32 0x0 PUSH20 0xFFFFFFFFFFFFFFFFFFFFFFFFFFFFFFFFFFFFFFFF AND CALLER PUSH20 0xFFFFFFFFFFFFFFFFFFFFFFFFFFFFFFFFFFFFFFFF AND EQ PUSH2 0x3DA JUMPI CALLER PUSH32 0x0 PUSH1 0x40 MLOAD PUSH32 0x1CF993F400000000000000000000000000000000000000000000000000000000 DUP2 MSTORE PUSH1 0x4 ADD PUSH2 0x3D1 SWAP3 SWAP2 SWAP1 PUSH2 0x1244 JUMP JUMPDEST PUSH1 0x40 MLOAD DUP1 SWAP2 SUB SWAP1 REVERT JUMPDEST PUSH2 0x3E4 DUP3 DUP3 PUSH2 0x90B JUMP JUMPDEST POP POP JUMP JUMPDEST PUSH1 0x0 PUSH2 0x402 PUSH1 0x40 MLOAD DUP1 PUSH1 0x20 ADD PUSH1 0x40 MSTORE DUP1 PUSH1 0x0 DUP2 MSTORE POP PUSH2 0x63A JUMP JUMPDEST POP SWAP1 POP DUP1 PUSH2 0x471 JUMPI SELFBALANCE PUSH1 0x0 DUP1 SLOAD SWAP1 POP PUSH1 0x1 PUSH1 0x14 SWAP1 SLOAD SWAP1 PUSH2 0x100 EXP SWAP1 DIV PUSH1 0xFF AND PUSH1 0x1 DUP2 GT ISZERO PUSH2 0x433 JUMPI PUSH2 0x432 PUSH2 0xFB4 JUMP JUMPDEST JUMPDEST PUSH1 0x40 MLOAD PUSH32 0x6E195F2500000000000000000000000000000000000000000000000000000000 DUP2 MSTORE PUSH1 0x4 ADD PUSH2 0x468 SWAP4 SWAP3 SWAP2 SWAP1 PUSH2 0x126D JUMP JUMPDEST PUSH1 0x40 MLOAD DUP1 SWAP2 SUB SWAP1 REVERT JUMPDEST PUSH1 0x1 DUP1 PUSH1 0x14 PUSH2 0x100 EXP DUP2 SLOAD DUP2 PUSH1 0xFF MUL NOT AND SWAP1 DUP4 PUSH1 0x1 DUP2 GT ISZERO PUSH2 0x496 JUMPI PUSH2 0x495 PUSH2 0xFB4 JUMP JUMPDEST JUMPDEST MUL OR SWAP1 SSTORE POP PUSH1 0x0 PUSH32 0x0 PUSH20 0xFFFFFFFFFFFFFFFFFFFFFFFFFFFFFFFFFFFFFFFF AND PUSH4 0x5D3B1D30 PUSH32 0x0 PUSH32 0x0 PUSH1 0x3 PUSH32 0x0 PUSH1 0x3 PUSH1 0x40 MLOAD DUP7 PUSH4 0xFFFFFFFF AND PUSH1 0xE0 SHL DUP2 MSTORE PUSH1 0x4 ADD PUSH2 0x560 SWAP6 SWAP5 SWAP4 SWAP3 SWAP2 SWAP1 PUSH2 0x133A JUMP JUMPDEST PUSH1 0x20 PUSH1 0x40 MLOAD DUP1 DUP4 SUB DUP2 PUSH1 0x0 DUP8 DUP1 EXTCODESIZE ISZERO DUP1 ISZERO PUSH2 0x57A JUMPI PUSH1 0x0 DUP1 REVERT JUMPDEST POP GAS CALL ISZERO DUP1 ISZERO PUSH2 0x58E JUMPI RETURNDATASIZE PUSH1 0x0 DUP1 RETURNDATACOPY RETURNDATASIZE PUSH1 0x0 REVERT JUMPDEST POP POP POP POP PUSH1 0x40 MLOAD RETURNDATASIZE PUSH1 0x1F NOT PUSH1 0x1F DUP3 ADD AND DUP3 ADD DUP1 PUSH1 0x40 MSTORE POP DUP2 ADD SWAP1 PUSH2 0x5B2 SWAP2 SWAP1 PUSH2 0x13A2 JUMP JUMPDEST SWAP1 POP DUP1 PUSH32 0x1BAD35FDAE2E39874FF5F5C6EFBD7EC60C205341A68815EA9E58ABD9CD1424E6 PUSH1 0x40 MLOAD PUSH1 0x40 MLOAD DUP1 SWAP2 SUB SWAP1 LOG2 POP POP POP POP JUMP JUMPDEST PUSH1 0x0 PUSH1 0x1 PUSH1 0x0 SWAP1 SLOAD SWAP1 PUSH2 0x100 EXP SWAP1 DIV PUSH20 0xFFFFFFFFFFFFFFFFFFFFFFFFFFFFFFFFFFFFFFFF AND SWAP1 POP SWAP1 JUMP JUMPDEST PUSH1 0x0 PUSH1 0x3 SWAP1 POP SWAP1 JUMP JUMPDEST PUSH1 0x0 PUSH1 0x3 SWAP1 POP SWAP1 JUMP JUMPDEST PUSH1 0x0 PUSH1 0x1 PUSH1 0x14 SWAP1 SLOAD SWAP1 PUSH2 0x100 EXP SWAP1 DIV PUSH1 0xFF AND SWAP1 POP SWAP1 JUMP JUMPDEST PUSH1 0x0 PUSH1 0x60 PUSH1 0x0 DUP1 PUSH1 0x1 DUP2 GT ISZERO PUSH2 0x653 JUMPI PUSH2 0x652 PUSH2 0xFB4 JUMP JUMPDEST JUMPDEST PUSH1 0x1 PUSH1 0x14 SWAP1 SLOAD SWAP1 PUSH2 0x100 EXP SWAP1 DIV PUSH1 0xFF AND PUSH1 0x1 DUP2 GT ISZERO PUSH2 0x675 JUMPI PUSH2 0x674 PUSH2 0xFB4 JUMP JUMPDEST JUMPDEST EQ SWAP1 POP PUSH1 0x0 PUSH32 0x0 PUSH1 0x2 SLOAD TIMESTAMP PUSH2 0x6A9 SWAP2 SWAP1 PUSH2 0x13FE JUMP JUMPDEST GT SWAP1 POP PUSH1 0x0 DUP1 PUSH1 0x0 DUP1 SLOAD SWAP1 POP GT SWAP1 POP PUSH1 0x0 DUP1 SELFBALANCE GT SWAP1 POP DUP4 DUP1 ISZERO PUSH2 0x6C9 JUMPI POP DUP3 JUMPDEST DUP1 ISZERO PUSH2 0x6D2 JUMPI POP DUP2 JUMPDEST DUP1 ISZERO PUSH2 0x6DB JUMPI POP DUP1 JUMPDEST SWAP6 POP DUP6 PUSH1 0x40 MLOAD DUP1 PUSH1 0x40 ADD PUSH1 0x40 MSTORE DUP1 PUSH1 0x3 DUP2 MSTORE PUSH1 0x20 ADD PUSH32 0x3078300000000000000000000000000000000000000000000000000000000000 DUP2 MSTORE POP SWAP6 POP SWAP6 POP POP POP POP POP SWAP2 POP SWAP2 JUMP JUMPDEST PUSH1 0x0 PUSH32 0x0 SWAP1 POP SWAP1 JUMP JUMPDEST PUSH32 0x0 CALLVALUE LT ISZERO PUSH2 0x7A3 JUMPI PUSH1 0x40 MLOAD PUSH32 0x1FACC11600000000000000000000000000000000000000000000000000000000 DUP2 MSTORE PUSH1 0x4 ADD PUSH1 0x40 MLOAD DUP1 SWAP2 SUB SWAP1 REVERT JUMPDEST PUSH1 0x0 PUSH1 0x1 DUP2 GT ISZERO PUSH2 0x7B7 JUMPI PUSH2 0x7B6 PUSH2 0xFB4 JUMP JUMPDEST JUMPDEST PUSH1 0x1 PUSH1 0x14 SWAP1 SLOAD SWAP1 PUSH2 0x100 EXP SWAP1 DIV PUSH1 0xFF AND PUSH1 0x1 DUP2 GT ISZERO PUSH2 0x7D9 JUMPI PUSH2 0x7D8 PUSH2 0xFB4 JUMP JUMPDEST JUMPDEST EQ PUSH2 0x810 JUMPI PUSH1 0x40 MLOAD PUSH32 0x823EA8BB00000000000000000000000000000000000000000000000000000000 DUP2 MSTORE PUSH1 0x4 ADD PUSH1 0x40 MLOAD DUP1 SWAP2 SUB SWAP1 REVERT JUMPDEST PUSH1 0x0 CALLER SWAP1 DUP1 PUSH1 0x1 DUP2 SLOAD ADD DUP1 DUP3 SSTORE DUP1 SWAP2 POP POP PUSH1 0x1 SWAP1 SUB SWAP1 PUSH1 0x0 MSTORE PUSH1 0x20 PUSH1 0x0 KECCAK256 ADD PUSH1 0x0 SWAP1 SWAP2 SWAP1 SWAP2 SWAP1 SWAP2 PUSH2 0x100 EXP DUP2 SLOAD DUP2 PUSH20 0xFFFFFFFFFFFFFFFFFFFFFFFFFFFFFFFFFFFFFFFF MUL NOT AND SWAP1 DUP4 PUSH20 0xFFFFFFFFFFFFFFFFFFFFFFFFFFFFFFFFFFFFFFFF AND MUL OR SWAP1 SSTORE POP CALLER PUSH20 0xFFFFFFFFFFFFFFFFFFFFFFFFFFFFFFFFFFFFFFFF AND PUSH32 0x1D64FB5BA9F2548C5B98468D58F25B87B9E866AFEE0122E92D9FE722BF85076C PUSH1 0x40 MLOAD PUSH1 0x40 MLOAD DUP1 SWAP2 SUB SWAP1 LOG2 JUMP JUMPDEST PUSH1 0x0 DUP1 DUP3 DUP2 SLOAD DUP2 LT PUSH2 0x8CD JUMPI PUSH2 0x8CC PUSH2 0x1432 JUMP JUMPDEST JUMPDEST SWAP1 PUSH1 0x0 MSTORE PUSH1 0x20 PUSH1 0x0 KECCAK256 ADD PUSH1 0x0 SWAP1 SLOAD SWAP1 PUSH2 0x100 EXP SWAP1 DIV PUSH20 0xFFFFFFFFFFFFFFFFFFFFFFFFFFFFFFFFFFFFFFFF AND SWAP1 POP SWAP2 SWAP1 POP JUMP JUMPDEST PUSH1 0x0 DUP1 DUP1 SLOAD SWAP1 POP SWAP1 POP SWAP1 JUMP JUMPDEST PUSH1 0x0 DUP1 DUP1 SLOAD SWAP1 POP DUP3 PUSH1 0x0 DUP2 MLOAD DUP2 LT PUSH2 0x926 JUMPI PUSH2 0x925 PUSH2 0x1432 JUMP JUMPDEST JUMPDEST PUSH1 0x20 MUL PUSH1 0x20 ADD ADD MLOAD PUSH2 0x938 SWAP2 SWAP1 PUSH2 0x1490 JUMP JUMPDEST SWAP1 POP PUSH1 0x0 DUP1 DUP3 DUP2 SLOAD DUP2 LT PUSH2 0x94F JUMPI PUSH2 0x94E PUSH2 0x1432 JUMP JUMPDEST JUMPDEST SWAP1 PUSH1 0x0 MSTORE PUSH1 0x20 PUSH1 0x0 KECCAK256 ADD PUSH1 0x0 SWAP1 SLOAD SWAP1 PUSH2 0x100 EXP SWAP1 DIV PUSH20 0xFFFFFFFFFFFFFFFFFFFFFFFFFFFFFFFFFFFFFFFF AND SWAP1 POP PUSH1 0x0 DUP2 PUSH20 0xFFFFFFFFFFFFFFFFFFFFFFFFFFFFFFFFFFFFFFFF AND SELFBALANCE PUSH1 0x40 MLOAD PUSH2 0x9A2 SWAP1 PUSH2 0x14F2 JUMP JUMPDEST PUSH1 0x0 PUSH1 0x40 MLOAD DUP1 DUP4 SUB DUP2 DUP6 DUP8 GAS CALL SWAP3 POP POP POP RETURNDATASIZE DUP1 PUSH1 0x0 DUP2 EQ PUSH2 0x9DF JUMPI PUSH1 0x40 MLOAD SWAP2 POP PUSH1 0x1F NOT PUSH1 0x3F RETURNDATASIZE ADD AND DUP3 ADD PUSH1 0x40 MSTORE RETURNDATASIZE DUP3 MSTORE RETURNDATASIZE PUSH1 0x0 PUSH1 0x20 DUP5 ADD RETURNDATACOPY PUSH2 0x9E4 JUMP JUMPDEST PUSH1 0x60 SWAP2 POP JUMPDEST POP POP SWAP1 POP DUP2 PUSH1 0x1 PUSH1 0x0 PUSH2 0x100 EXP DUP2 SLOAD DUP2 PUSH20 0xFFFFFFFFFFFFFFFFFFFFFFFFFFFFFFFFFFFFFFFF MUL NOT AND SWAP1 DUP4 PUSH20 0xFFFFFFFFFFFFFFFFFFFFFFFFFFFFFFFFFFFFFFFF AND MUL OR SWAP1 SSTORE POP PUSH1 0x0 PUSH1 0x1 PUSH1 0x14 PUSH2 0x100 EXP DUP2 SLOAD DUP2 PUSH1 0xFF MUL NOT AND SWAP1 DUP4 PUSH1 0x1 DUP2 GT ISZERO PUSH2 0xA4F JUMPI PUSH2 0xA4E PUSH2 0xFB4 JUMP JUMPDEST JUMPDEST MUL OR SWAP1 SSTORE POP TIMESTAMP PUSH1 0x2 DUP2 SWAP1 SSTORE POP PUSH1 0x0 PUSH8 0xFFFFFFFFFFFFFFFF DUP2 GT ISZERO PUSH2 0xA76 JUMPI PUSH2 0xA75 PUSH2 0xCD9 JUMP JUMPDEST JUMPDEST PUSH1 0x40 MLOAD SWAP1 DUP1 DUP3 MSTORE DUP1 PUSH1 0x20 MUL PUSH1 0x20 ADD DUP3 ADD PUSH1 0x40 MSTORE DUP1 ISZERO PUSH2 0xAA4 JUMPI DUP2 PUSH1 0x20 ADD PUSH1 0x20 DUP3 MUL DUP1 CALLDATASIZE DUP4 CALLDATACOPY DUP1 DUP3 ADD SWAP2 POP POP SWAP1 POP JUMPDEST POP PUSH1 0x0 SWAP1 DUP1 MLOAD SWAP1 PUSH1 0x20 ADD SWAP1 PUSH2 0xABA SWAP3 SWAP2 SWAP1 PUSH2 0xBA8 JUMP JUMPDEST POP PUSH1 0x0 PUSH1 0x1 PUSH1 0x14 PUSH2 0x100 EXP DUP2 SLOAD DUP2 PUSH1 0xFF MUL NOT AND SWAP1 DUP4 PUSH1 0x1 DUP2 GT ISZERO PUSH2 0xAE1 JUMPI PUSH2 0xAE0 PUSH2 0xFB4 JUMP JUMPDEST JUMPDEST MUL OR SWAP1 SSTORE POP DUP2 PUSH1 0x1 PUSH1 0x0 PUSH2 0x100 EXP DUP2 SLOAD DUP2 PUSH20 0xFFFFFFFFFFFFFFFFFFFFFFFFFFFFFFFFFFFFFFFF MUL NOT AND SWAP1 DUP4 PUSH20 0xFFFFFFFFFFFFFFFFFFFFFFFFFFFFFFFFFFFFFFFF AND MUL OR SWAP1 SSTORE POP DUP1 PUSH2 0xB5E JUMPI PUSH1 0x40 MLOAD PUSH32 0xE711A87700000000000000000000000000000000000000000000000000000000 DUP2 MSTORE PUSH1 0x4 ADD PUSH1 0x40 MLOAD DUP1 SWAP2 SUB SWAP1 REVERT JUMPDEST DUP2 PUSH20 0xFFFFFFFFFFFFFFFFFFFFFFFFFFFFFFFFFFFFFFFF AND PUSH32 0x5B690EC4A06FE979403046EAEEA5B3CE38524683C3001F662C8B5A829632F7DF PUSH1 0x40 MLOAD PUSH1 0x40 MLOAD DUP1 SWAP2 SUB SWAP1 LOG2 POP POP POP POP POP JUMP JUMPDEST DUP3 DUP1 SLOAD DUP3 DUP3 SSTORE SWAP1 PUSH1 0x0 MSTORE PUSH1 0x20 PUSH1 0x0 KECCAK256 SWAP1 DUP2 ADD SWAP3 DUP3 ISZERO PUSH2 0xC21 JUMPI SWAP2 PUSH1 0x20 MUL DUP3 ADD JUMPDEST DUP3 DUP2 GT ISZERO PUSH2 0xC20 JUMPI DUP3 MLOAD DUP3 PUSH1 0x0 PUSH2 0x100 EXP DUP2 SLOAD DUP2 PUSH20 0xFFFFFFFFFFFFFFFFFFFFFFFFFFFFFFFFFFFFFFFF MUL NOT AND SWAP1 DUP4 PUSH20 0xFFFFFFFFFFFFFFFFFFFFFFFFFFFFFFFFFFFFFFFF AND MUL OR SWAP1 SSTORE POP SWAP2 PUSH1 0x20 ADD SWAP2 SWAP1 PUSH1 0x1 ADD SWAP1 PUSH2 0xBC8 JUMP JUMPDEST JUMPDEST POP SWAP1 POP PUSH2 0xC2E SWAP2 SWAP1 PUSH2 0xC32 JUMP JUMPDEST POP SWAP1 JUMP JUMPDEST JUMPDEST DUP1 DUP3 GT ISZERO PUSH2 0xC4B JUMPI PUSH1 0x0 DUP2 PUSH1 0x0 SWAP1 SSTORE POP PUSH1 0x1 ADD PUSH2 0xC33 JUMP JUMPDEST POP SWAP1 JUMP JUMPDEST PUSH1 0x0 DUP2 SWAP1 POP SWAP2 SWAP1 POP JUMP JUMPDEST PUSH2 0xC62 DUP2 PUSH2 0xC4F JUMP JUMPDEST DUP3 MSTORE POP POP JUMP JUMPDEST PUSH1 0x0 PUSH1 0x20 DUP3 ADD SWAP1 POP PUSH2 0xC7D PUSH1 0x0 DUP4 ADD DUP5 PUSH2 0xC59 JUMP JUMPDEST SWAP3 SWAP2 POP POP JUMP JUMPDEST PUSH1 0x0 PUSH1 0x40 MLOAD SWAP1 POP SWAP1 JUMP JUMPDEST PUSH1 0x0 DUP1 REVERT JUMPDEST PUSH1 0x0 DUP1 REVERT JUMPDEST PUSH2 0xCA0 DUP2 PUSH2 0xC4F JUMP JUMPDEST DUP2 EQ PUSH2 0xCAB JUMPI PUSH1 0x0 DUP1 REVERT JUMPDEST POP JUMP JUMPDEST PUSH1 0x0 DUP2 CALLDATALOAD SWAP1 POP PUSH2 0xCBD DUP2 PUSH2 0xC97 JUMP JUMPDEST SWAP3 SWAP2 POP POP JUMP JUMPDEST PUSH1 0x0 DUP1 REVERT JUMPDEST PUSH1 0x0 PUSH1 0x1F NOT PUSH1 0x1F DUP4 ADD AND SWAP1 POP SWAP2 SWAP1 POP JUMP JUMPDEST PUSH32 0x4E487B7100000000000000000000000000000000000000000000000000000000 PUSH1 0x0 MSTORE PUSH1 0x41 PUSH1 0x4 MSTORE PUSH1 0x24 PUSH1 0x0 REVERT JUMPDEST PUSH2 0xD11 DUP3 PUSH2 0xCC8 JUMP JUMPDEST DUP2 ADD DUP2 DUP2 LT PUSH8 0xFFFFFFFFFFFFFFFF DUP3 GT OR ISZERO PUSH2 0xD30 JUMPI PUSH2 0xD2F PUSH2 0xCD9 JUMP JUMPDEST JUMPDEST DUP1 PUSH1 0x40 MSTORE POP POP POP JUMP JUMPDEST PUSH1 0x0 PUSH2 0xD43 PUSH2 0xC83 JUMP JUMPDEST SWAP1 POP PUSH2 0xD4F DUP3 DUP3 PUSH2 0xD08 JUMP JUMPDEST SWAP2 SWAP1 POP JUMP JUMPDEST PUSH1 0x0 PUSH8 0xFFFFFFFFFFFFFFFF DUP3 GT ISZERO PUSH2 0xD6F JUMPI PUSH2 0xD6E PUSH2 0xCD9 JUMP JUMPDEST JUMPDEST PUSH1 0x20 DUP3 MUL SWAP1 POP PUSH1 0x20 DUP2 ADD SWAP1 POP SWAP2 SWAP1 POP JUMP JUMPDEST PUSH1 0x0 DUP1 REVERT JUMPDEST PUSH1 0x0 PUSH2 0xD98 PUSH2 0xD93 DUP5 PUSH2 0xD54 JUMP JUMPDEST PUSH2 0xD39 JUMP JUMPDEST SWAP1 POP DUP1 DUP4 DUP3 MSTORE PUSH1 0x20 DUP3 ADD SWAP1 POP PUSH1 0x20 DUP5 MUL DUP4 ADD DUP6 DUP2 GT ISZERO PUSH2 0xDBB JUMPI PUSH2 0xDBA PUSH2 0xD80 JUMP JUMPDEST JUMPDEST DUP4 JUMPDEST DUP2 DUP2 LT ISZERO PUSH2 0xDE4 JUMPI DUP1 PUSH2 0xDD0 DUP9 DUP3 PUSH2 0xCAE JUMP JUMPDEST DUP5 MSTORE PUSH1 0x20 DUP5 ADD SWAP4 POP POP PUSH1 0x20 DUP2 ADD SWAP1 POP PUSH2 0xDBD JUMP JUMPDEST POP POP POP SWAP4 SWAP3 POP POP POP JUMP JUMPDEST PUSH1 0x0 DUP3 PUSH1 0x1F DUP4 ADD SLT PUSH2 0xE03 JUMPI PUSH2 0xE02 PUSH2 0xCC3 JUMP JUMPDEST JUMPDEST DUP2 CALLDATALOAD PUSH2 0xE13 DUP5 DUP3 PUSH1 0x20 DUP7 ADD PUSH2 0xD85 JUMP JUMPDEST SWAP2 POP POP SWAP3 SWAP2 POP POP JUMP JUMPDEST PUSH1 0x0 DUP1 PUSH1 0x40 DUP4 DUP6 SUB SLT ISZERO PUSH2 0xE33 JUMPI PUSH2 0xE32 PUSH2 0xC8D JUMP JUMPDEST JUMPDEST PUSH1 0x0 PUSH2 0xE41 DUP6 DUP3 DUP7 ADD PUSH2 0xCAE JUMP JUMPDEST SWAP3 POP POP PUSH1 0x20 DUP4 ADD CALLDATALOAD PUSH8 0xFFFFFFFFFFFFFFFF DUP2 GT ISZERO PUSH2 0xE62 JUMPI PUSH2 0xE61 PUSH2 0xC92 JUMP JUMPDEST JUMPDEST PUSH2 0xE6E DUP6 DUP3 DUP7 ADD PUSH2 0xDEE JUMP JUMPDEST SWAP2 POP POP SWAP3 POP SWAP3 SWAP1 POP JUMP JUMPDEST PUSH1 0x0 DUP1 REVERT JUMPDEST PUSH1 0x0 DUP1 DUP4 PUSH1 0x1F DUP5 ADD SLT PUSH2 0xE93 JUMPI PUSH2 0xE92 PUSH2 0xCC3 JUMP JUMPDEST JUMPDEST DUP3 CALLDATALOAD SWAP1 POP PUSH8 0xFFFFFFFFFFFFFFFF DUP2 GT ISZERO PUSH2 0xEB0 JUMPI PUSH2 0xEAF PUSH2 0xE78 JUMP JUMPDEST JUMPDEST PUSH1 0x20 DUP4 ADD SWAP2 POP DUP4 PUSH1 0x1 DUP3 MUL DUP4 ADD GT ISZERO PUSH2 0xECC JUMPI PUSH2 0xECB PUSH2 0xD80 JUMP JUMPDEST JUMPDEST SWAP3 POP SWAP3 SWAP1 POP JUMP JUMPDEST PUSH1 0x0 DUP1 PUSH1 0x20 DUP4 DUP6 SUB SLT ISZERO PUSH2 0xEEA JUMPI PUSH2 0xEE9 PUSH2 0xC8D JUMP JUMPDEST JUMPDEST PUSH1 0x0 DUP4 ADD CALLDATALOAD PUSH8 0xFFFFFFFFFFFFFFFF DUP2 GT ISZERO PUSH2 0xF08 JUMPI PUSH2 0xF07 PUSH2 0xC92 JUMP JUMPDEST JUMPDEST PUSH2 0xF14 DUP6 DUP3 DUP7 ADD PUSH2 0xE7D JUMP JUMPDEST SWAP3 POP SWAP3 POP POP SWAP3 POP SWAP3 SWAP1 POP JUMP JUMPDEST PUSH1 0x0 PUSH20 0xFFFFFFFFFFFFFFFFFFFFFFFFFFFFFFFFFFFFFFFF DUP3 AND SWAP1 POP SWAP2 SWAP1 POP JUMP JUMPDEST PUSH1 0x0 PUSH2 0xF4B DUP3 PUSH2 0xF20 JUMP JUMPDEST SWAP1 POP SWAP2 SWAP1 POP JUMP JUMPDEST PUSH2 0xF5B DUP2 PUSH2 0xF40 JUMP JUMPDEST DUP3 MSTORE POP POP JUMP JUMPDEST PUSH1 0x0 PUSH1 0x20 DUP3 ADD SWAP1 POP PUSH2 0xF76 PUSH1 0x0 DUP4 ADD DUP5 PUSH2 0xF52 JUMP JUMPDEST SWAP3 SWAP2 POP POP JUMP JUMPDEST PUSH1 0x0 PUSH2 0xFFFF DUP3 AND SWAP1 POP SWAP2 SWAP1 POP JUMP JUMPDEST PUSH2 0xF93 DUP2 PUSH2 0xF7C JUMP JUMPDEST DUP3 MSTORE POP POP JUMP JUMPDEST PUSH1 0x0 PUSH1 0x20 DUP3 ADD SWAP1 POP PUSH2 0xFAE PUSH1 0x0 DUP4 ADD DUP5 PUSH2 0xF8A JUMP JUMPDEST SWAP3 SWAP2 POP POP JUMP JUMPDEST PUSH32 0x4E487B7100000000000000000000000000000000000000000000000000000000 PUSH1 0x0 MSTORE PUSH1 0x21 PUSH1 0x4 MSTORE PUSH1 0x24 PUSH1 0x0 REVERT JUMPDEST PUSH1 0x2 DUP2 LT PUSH2 0xFF4 JUMPI PUSH2 0xFF3 PUSH2 0xFB4 JUMP JUMPDEST JUMPDEST POP JUMP JUMPDEST PUSH1 0x0 DUP2 SWAP1 POP PUSH2 0x1005 DUP3 PUSH2 0xFE3 JUMP JUMPDEST SWAP2 SWAP1 POP JUMP JUMPDEST PUSH1 0x0 PUSH2 0x1015 DUP3 PUSH2 0xFF7 JUMP JUMPDEST SWAP1 POP SWAP2 SWAP1 POP JUMP JUMPDEST PUSH2 0x1025 DUP2 PUSH2 0x100A JUMP JUMPDEST DUP3 MSTORE POP POP JUMP JUMPDEST PUSH1 0x0 PUSH1 0x20 DUP3 ADD SWAP1 POP PUSH2 0x1040 PUSH1 0x0 DUP4 ADD DUP5 PUSH2 0x101C JUMP JUMPDEST SWAP3 SWAP2 POP POP JUMP JUMPDEST PUSH1 0x0 DUP1 REVERT JUMPDEST PUSH1 0x0 PUSH8 0xFFFFFFFFFFFFFFFF DUP3 GT ISZERO PUSH2 0x1066 JUMPI PUSH2 0x1065 PUSH2 0xCD9 JUMP JUMPDEST JUMPDEST PUSH2 0x106F DUP3 PUSH2 0xCC8 JUMP JUMPDEST SWAP1 POP PUSH1 0x20 DUP2 ADD SWAP1 POP SWAP2 SWAP1 POP JUMP JUMPDEST DUP3 DUP2 DUP4 CALLDATACOPY PUSH1 0x0 DUP4 DUP4 ADD MSTORE POP POP POP JUMP JUMPDEST PUSH1 0x0 PUSH2 0x109E PUSH2 0x1099 DUP5 PUSH2 0x104B JUMP JUMPDEST PUSH2 0xD39 JUMP JUMPDEST SWAP1 POP DUP3 DUP2 MSTORE PUSH1 0x20 DUP2 ADD DUP5 DUP5 DUP5 ADD GT ISZERO PUSH2 0x10BA JUMPI PUSH2 0x10B9 PUSH2 0x1046 JUMP JUMPDEST JUMPDEST PUSH2 0x10C5 DUP5 DUP3 DUP6 PUSH2 0x107C JUMP JUMPDEST POP SWAP4 SWAP3 POP POP POP JUMP JUMPDEST PUSH1 0x0 DUP3 PUSH1 0x1F DUP4 ADD SLT PUSH2 0x10E2 JUMPI PUSH2 0x10E1 PUSH2 0xCC3 JUMP JUMPDEST JUMPDEST DUP2 CALLDATALOAD PUSH2 0x10F2 DUP5 DUP3 PUSH1 0x20 DUP7 ADD PUSH2 0x108B JUMP JUMPDEST SWAP2 POP POP SWAP3 SWAP2 POP POP JUMP JUMPDEST PUSH1 0x0 PUSH1 0x20 DUP3 DUP5 SUB SLT ISZERO PUSH2 0x1111 JUMPI PUSH2 0x1110 PUSH2 0xC8D JUMP JUMPDEST JUMPDEST PUSH1 0x0 DUP3 ADD CALLDATALOAD PUSH8 0xFFFFFFFFFFFFFFFF DUP2 GT ISZERO PUSH2 0x112F JUMPI PUSH2 0x112E PUSH2 0xC92 JUMP JUMPDEST JUMPDEST PUSH2 0x113B DUP5 DUP3 DUP6 ADD PUSH2 0x10CD JUMP JUMPDEST SWAP2 POP POP SWAP3 SWAP2 POP POP JUMP JUMPDEST PUSH1 0x0 DUP2 ISZERO ISZERO SWAP1 POP SWAP2 SWAP1 POP JUMP JUMPDEST PUSH2 0x1159 DUP2 PUSH2 0x1144 JUMP JUMPDEST DUP3 MSTORE POP POP JUMP JUMPDEST PUSH1 0x0 DUP2 MLOAD SWAP1 POP SWAP2 SWAP1 POP JUMP JUMPDEST PUSH1 0x0 DUP3 DUP3 MSTORE PUSH1 0x20 DUP3 ADD SWAP1 POP SWAP3 SWAP2 POP POP JUMP JUMPDEST PUSH1 0x0 JUMPDEST DUP4 DUP2 LT ISZERO PUSH2 0x1199 JUMPI DUP1 DUP3 ADD MLOAD DUP2 DUP5 ADD MSTORE PUSH1 0x20 DUP2 ADD SWAP1 POP PUSH2 0x117E JUMP JUMPDEST DUP4 DUP2 GT ISZERO PUSH2 0x11A8 JUMPI PUSH1 0x0 DUP5 DUP5 ADD MSTORE JUMPDEST POP POP POP POP JUMP JUMPDEST PUSH1 0x0 PUSH2 0x11B9 DUP3 PUSH2 0x115F JUMP JUMPDEST PUSH2 0x11C3 DUP2 DUP6 PUSH2 0x116A JUMP JUMPDEST SWAP4 POP PUSH2 0x11D3 DUP2 DUP6 PUSH1 0x20 DUP7 ADD PUSH2 0x117B JUMP JUMPDEST PUSH2 0x11DC DUP2 PUSH2 0xCC8 JUMP JUMPDEST DUP5 ADD SWAP2 POP POP SWAP3 SWAP2 POP POP JUMP JUMPDEST PUSH1 0x0 PUSH1 0x40 DUP3 ADD SWAP1 POP PUSH2 0x11FC PUSH1 0x0 DUP4 ADD DUP6 PUSH2 0x1150 JUMP JUMPDEST DUP2 DUP2 SUB PUSH1 0x20 DUP4 ADD MSTORE PUSH2 0x120E DUP2 DUP5 PUSH2 0x11AE JUMP JUMPDEST SWAP1 POP SWAP4 SWAP3 POP POP POP JUMP JUMPDEST PUSH1 0x0 PUSH1 0x20 DUP3 DUP5 SUB SLT ISZERO PUSH2 0x122D JUMPI PUSH2 0x122C PUSH2 0xC8D JUMP JUMPDEST JUMPDEST PUSH1 0x0 PUSH2 0x123B DUP5 DUP3 DUP6 ADD PUSH2 0xCAE JUMP JUMPDEST SWAP2 POP POP SWAP3 SWAP2 POP POP JUMP JUMPDEST PUSH1 0x0 PUSH1 0x40 DUP3 ADD SWAP1 POP PUSH2 0x1259 PUSH1 0x0 DUP4 ADD DUP6 PUSH2 0xF52 JUMP JUMPDEST PUSH2 0x1266 PUSH1 0x20 DUP4 ADD DUP5 PUSH2 0xF52 JUMP JUMPDEST SWAP4 SWAP3 POP POP POP JUMP JUMPDEST PUSH1 0x0 PUSH1 0x60 DUP3 ADD SWAP1 POP PUSH2 0x1282 PUSH1 0x0 DUP4 ADD DUP7 PUSH2 0xC59 JUMP JUMPDEST PUSH2 0x128F PUSH1 0x20 DUP4 ADD DUP6 PUSH2 0xC59 JUMP JUMPDEST PUSH2 0x129C PUSH1 0x40 DUP4 ADD DUP5 PUSH2 0xC59 JUMP JUMPDEST SWAP5 SWAP4 POP POP POP POP JUMP JUMPDEST PUSH1 0x0 DUP2 SWAP1 POP SWAP2 SWAP1 POP JUMP JUMPDEST PUSH2 0x12B7 DUP2 PUSH2 0x12A4 JUMP JUMPDEST DUP3 MSTORE POP POP JUMP JUMPDEST PUSH1 0x0 PUSH8 0xFFFFFFFFFFFFFFFF DUP3 AND SWAP1 POP SWAP2 SWAP1 POP JUMP JUMPDEST PUSH2 0x12DA DUP2 PUSH2 0x12BD JUMP JUMPDEST DUP3 MSTORE POP POP JUMP JUMPDEST PUSH1 0x0 PUSH4 0xFFFFFFFF DUP3 AND SWAP1 POP SWAP2 SWAP1 POP JUMP JUMPDEST PUSH2 0x12F9 DUP2 PUSH2 0x12E0 JUMP JUMPDEST DUP3 MSTORE POP POP JUMP JUMPDEST PUSH1 0x0 DUP2 SWAP1 POP SWAP2 SWAP1 POP JUMP JUMPDEST PUSH1 0x0 PUSH2 0x1324 PUSH2 0x131F PUSH2 0x131A DUP5 PUSH2 0xF7C JUMP JUMPDEST PUSH2 0x12FF JUMP JUMPDEST PUSH2 0x12E0 JUMP JUMPDEST SWAP1 POP SWAP2 SWAP1 POP JUMP JUMPDEST PUSH2 0x1334 DUP2 PUSH2 0x1309 JUMP JUMPDEST DUP3 MSTORE POP POP JUMP JUMPDEST PUSH1 0x0 PUSH1 0xA0 DUP3 ADD SWAP1 POP PUSH2 0x134F PUSH1 0x0 DUP4 ADD DUP9 PUSH2 0x12AE JUMP JUMPDEST PUSH2 0x135C PUSH1 0x20 DUP4 ADD DUP8 PUSH2 0x12D1 JUMP JUMPDEST PUSH2 0x1369 PUSH1 0x40 DUP4 ADD DUP7 PUSH2 0xF8A JUMP JUMPDEST PUSH2 0x1376 PUSH1 0x60 DUP4 ADD DUP6 PUSH2 0x12F0 JUMP JUMPDEST PUSH2 0x1383 PUSH1 0x80 DUP4 ADD DUP5 PUSH2 0x132B JUMP JUMPDEST SWAP7 SWAP6 POP POP POP POP POP POP JUMP JUMPDEST PUSH1 0x0 DUP2 MLOAD SWAP1 POP PUSH2 0x139C DUP2 PUSH2 0xC97 JUMP JUMPDEST SWAP3 SWAP2 POP POP JUMP JUMPDEST PUSH1 0x0 PUSH1 0x20 DUP3 DUP5 SUB SLT ISZERO PUSH2 0x13B8 JUMPI PUSH2 0x13B7 PUSH2 0xC8D JUMP JUMPDEST JUMPDEST PUSH1 0x0 PUSH2 0x13C6 DUP5 DUP3 DUP6 ADD PUSH2 0x138D JUMP JUMPDEST SWAP2 POP POP SWAP3 SWAP2 POP POP JUMP JUMPDEST PUSH32 0x4E487B7100000000000000000000000000000000000000000000000000000000 PUSH1 0x0 MSTORE PUSH1 0x11 PUSH1 0x4 MSTORE PUSH1 0x24 PUSH1 0x0 REVERT JUMPDEST PUSH1 0x0 PUSH2 0x1409 DUP3 PUSH2 0xC4F JUMP JUMPDEST SWAP2 POP PUSH2 0x1414 DUP4 PUSH2 0xC4F JUMP JUMPDEST SWAP3 POP DUP3 DUP3 LT ISZERO PUSH2 0x1427 JUMPI PUSH2 0x1426 PUSH2 0x13CF JUMP JUMPDEST JUMPDEST DUP3 DUP3 SUB SWAP1 POP SWAP3 SWAP2 POP POP JUMP JUMPDEST PUSH32 0x4E487B7100000000000000000000000000000000000000000000000000000000 PUSH1 0x0 MSTORE PUSH1 0x32 PUSH1 0x4 MSTORE PUSH1 0x24 PUSH1 0x0 REVERT JUMPDEST PUSH32 0x4E487B7100000000000000000000000000000000000000000000000000000000 PUSH1 0x0 MSTORE PUSH1 0x12 PUSH1 0x4 MSTORE PUSH1 0x24 PUSH1 0x0 REVERT JUMPDEST PUSH1 0x0 PUSH2 0x149B DUP3 PUSH2 0xC4F JUMP JUMPDEST SWAP2 POP PUSH2 0x14A6 DUP4 PUSH2 0xC4F JUMP JUMPDEST SWAP3 POP DUP3 PUSH2 0x14B6 JUMPI PUSH2 0x14B5 PUSH2 0x1461 JUMP JUMPDEST JUMPDEST DUP3 DUP3 MOD SWAP1 POP SWAP3 SWAP2 POP POP JUMP JUMPDEST PUSH1 0x0 DUP2 SWAP1 POP SWAP3 SWAP2 POP POP JUMP JUMPDEST POP JUMP JUMPDEST PUSH1 0x0 PUSH2 0x14DC PUSH1 0x0 DUP4 PUSH2 0x14C1 JUMP JUMPDEST SWAP2 POP PUSH2 0x14E7 DUP3 PUSH2 0x14CC JUMP JUMPDEST PUSH1 0x0 DUP3 ADD SWAP1 POP SWAP2 SWAP1 POP JUMP JUMPDEST PUSH1 0x0 PUSH2 0x14FD DUP3 PUSH2 0x14CF JUMP JUMPDEST SWAP2 POP DUP2 SWAP1 POP SWAP2 SWAP1 POP JUMP INVALID LOG2 PUSH5 0x6970667358 0x22 SLT KECCAK256 0xE1 DUP2 SWAP11 0xDF PUSH10 0xE648B2FDB22BFEC9DA1E SIGNEXTEND OR 0xBC JUMP NOT DUP1 PUSH8 0x32BC42E01D4001AF JUMP SWAP2 PUSH5 0x736F6C6343 STOP ADDMOD ADDMOD STOP CALLER "
        },
        "gasEstimates": {
          "creation": {
            "codeDepositCost": "1087400",
            "executionCost": "infinite",
            "totalCost": "infinite"
          },
          "external": {
            "checkUpkeep(bytes)": "infinite",
            "enterLottery()": "infinite",
            "getEntranceFee()": "infinite",
            "getInterval()": "infinite",
            "getLotteryState()": "2663",
            "getNumWords()": "454",
            "getNumberOfPlayers()": "2533",
            "getPlayer(uint256)": "5033",
            "getRecentWinner()": "2611",
            "getRequestConfirmations()": "366",
            "getTimestamp()": "2460",
            "performUpkeep(bytes)": "infinite",
            "rawFulfillRandomWords(uint256,uint256[])": "infinite"
          },
          "internal": {
            "fulfillRandomWords(uint256,uint256[] memory)": "infinite"
          }
        },
        "methodIdentifiers": {
          "checkUpkeep(bytes)": "6e04ff0d",
          "enterLottery()": "c1af5785",
          "getEntranceFee()": "09bc33a7",
          "getInterval()": "91ad27b4",
          "getLotteryState()": "6b68c03c",
          "getNumWords()": "53a2c19a",
          "getNumberOfPlayers()": "fd6673f5",
          "getPlayer(uint256)": "e55ae4e8",
          "getRecentWinner()": "473f1ddc",
          "getRequestConfirmations()": "5f1b0fd8",
          "getTimestamp()": "188ec356",
          "performUpkeep(bytes)": "4585e33b",
          "rawFulfillRandomWords(uint256,uint256[])": "1fe543e3"
        }
      },
      "storageLayout": {
        "storage": [
          {
            "astId": 886,
            "contract": "contracts/Lottery.sol:Lottery",
            "label": "s_players",
            "offset": 0,
            "slot": "0",
            "type": "t_array(t_address_payable)dyn_storage"
          },
          {
            "astId": 890,
            "contract": "contracts/Lottery.sol:Lottery",
            "label": "s_recentWinner",
            "offset": 0,
            "slot": "1",
            "type": "t_address"
          },
          {
            "astId": 893,
            "contract": "contracts/Lottery.sol:Lottery",
            "label": "s_lotteryState",
            "offset": 20,
            "slot": "1",
            "type": "t_enum(LotteryState)866"
          },
          {
            "astId": 895,
            "contract": "contracts/Lottery.sol:Lottery",
            "label": "s_lastTimestamp",
            "offset": 0,
            "slot": "2",
            "type": "t_uint256"
          }
        ],
        "types": {
          "t_address": {
            "encoding": "inplace",
            "label": "address",
            "numberOfBytes": "20"
          },
          "t_address_payable": {
            "encoding": "inplace",
            "label": "address payable",
            "numberOfBytes": "20"
          },
          "t_array(t_address_payable)dyn_storage": {
            "base": "t_address_payable",
            "encoding": "dynamic_array",
            "label": "address payable[]",
            "numberOfBytes": "32"
          },
          "t_enum(LotteryState)866": {
            "encoding": "inplace",
            "label": "enum Lottery.LotteryState",
            "numberOfBytes": "1"
          },
          "t_uint256": {
            "encoding": "inplace",
            "label": "uint256",
            "numberOfBytes": "32"
          }
        }
      },
      "userdoc": {
        "kind": "user",
        "methods": {},
        "notice": "This Contract is for creatign a decentralized lottery",
        "version": 1
      }
    }
  }
}